{
  "contractName": "MedChain",
  "abi": [
    {
      "inputs": [],
      "payable": false,
      "stateMutability": "nonpayable",
      "type": "constructor"
    },
    {
      "anonymous": false,
      "inputs": [
        {
          "indexed": false,
          "internalType": "uint256",
          "name": "batchId",
          "type": "uint256"
        },
        {
          "indexed": false,
          "internalType": "string",
          "name": "drugName",
          "type": "string"
        },
        {
          "indexed": false,
          "internalType": "string",
          "name": "batchDescription",
          "type": "string"
        }
      ],
      "name": "BatchCreated",
      "type": "event"
    },
    {
      "anonymous": false,
      "inputs": [
        {
          "indexed": false,
          "internalType": "uint256",
          "name": "batchId",
          "type": "uint256"
        },
        {
          "indexed": false,
          "internalType": "enum MedChain.BatchStatus",
          "name": "newStatus",
          "type": "uint8"
        },
        {
          "indexed": false,
          "internalType": "address",
          "name": "actor",
          "type": "address"
        }
      ],
      "name": "BatchStatusChanged",
      "type": "event"
    },
    {
      "anonymous": false,
      "inputs": [
        {
          "indexed": false,
          "internalType": "string",
          "name": "role",
          "type": "string"
        },
        {
          "indexed": false,
          "internalType": "uint256",
          "name": "id",
          "type": "uint256"
        },
        {
          "indexed": false,
          "internalType": "address",
          "name": "addr",
          "type": "address"
        },
        {
          "indexed": false,
          "internalType": "string",
          "name": "name",
          "type": "string"
        },
        {
          "indexed": false,
          "internalType": "string",
          "name": "place",
          "type": "string"
        }
      ],
      "name": "RoleRegistered",
      "type": "event"
    },
    {
      "constant": true,
      "inputs": [
        {
          "internalType": "uint256",
          "name": "",
          "type": "uint256"
        }
      ],
      "name": "DrugBatches",
      "outputs": [
        {
          "internalType": "uint256",
          "name": "batchId",
          "type": "uint256"
        },
        {
          "internalType": "string",
          "name": "drugName",
          "type": "string"
        },
        {
          "internalType": "string",
          "name": "batchDescription",
          "type": "string"
        },
        {
          "internalType": "uint256",
          "name": "supplierId",
          "type": "uint256"
        },
        {
          "internalType": "uint256",
          "name": "labId",
          "type": "uint256"
        },
        {
          "internalType": "uint256",
          "name": "wholesalerId",
          "type": "uint256"
        },
        {
          "internalType": "uint256",
          "name": "pharmacyId",
          "type": "uint256"
        },
        {
          "internalType": "enum MedChain.BatchStatus",
          "name": "status",
          "type": "uint8"
        }
      ],
      "payable": false,
      "stateMutability": "view",
      "type": "function"
    },
    {
      "constant": true,
      "inputs": [
        {
          "internalType": "uint256",
          "name": "",
          "type": "uint256"
        }
      ],
      "name": "Labs",
      "outputs": [
        {
          "internalType": "address",
          "name": "addr",
          "type": "address"
        },
        {
          "internalType": "uint256",
          "name": "id",
          "type": "uint256"
        },
        {
          "internalType": "string",
          "name": "name",
          "type": "string"
        },
        {
          "internalType": "string",
          "name": "place",
          "type": "string"
        }
      ],
      "payable": false,
      "stateMutability": "view",
      "type": "function"
    },
    {
      "constant": true,
      "inputs": [],
      "name": "Owner",
      "outputs": [
        {
          "internalType": "address",
          "name": "",
          "type": "address"
        }
      ],
      "payable": false,
      "stateMutability": "view",
      "type": "function"
    },
    {
      "constant": true,
      "inputs": [
        {
          "internalType": "uint256",
          "name": "",
          "type": "uint256"
        }
      ],
      "name": "Pharmacies",
      "outputs": [
        {
          "internalType": "address",
          "name": "addr",
          "type": "address"
        },
        {
          "internalType": "uint256",
          "name": "id",
          "type": "uint256"
        },
        {
          "internalType": "string",
          "name": "name",
          "type": "string"
        },
        {
          "internalType": "string",
          "name": "place",
          "type": "string"
        }
      ],
      "payable": false,
      "stateMutability": "view",
      "type": "function"
    },
    {
      "constant": true,
      "inputs": [
        {
          "internalType": "uint256",
          "name": "",
          "type": "uint256"
        }
      ],
      "name": "Suppliers",
      "outputs": [
        {
          "internalType": "address",
          "name": "addr",
          "type": "address"
        },
        {
          "internalType": "uint256",
          "name": "id",
          "type": "uint256"
        },
        {
          "internalType": "string",
          "name": "name",
          "type": "string"
        },
        {
          "internalType": "string",
          "name": "place",
          "type": "string"
        }
      ],
      "payable": false,
      "stateMutability": "view",
      "type": "function"
    },
    {
      "constant": true,
      "inputs": [
        {
          "internalType": "uint256",
          "name": "",
          "type": "uint256"
        }
      ],
      "name": "Wholesalers",
      "outputs": [
        {
          "internalType": "address",
          "name": "addr",
          "type": "address"
        },
        {
          "internalType": "uint256",
          "name": "id",
          "type": "uint256"
        },
        {
          "internalType": "string",
          "name": "name",
          "type": "string"
        },
        {
          "internalType": "string",
          "name": "place",
          "type": "string"
        }
      ],
      "payable": false,
      "stateMutability": "view",
      "type": "function"
    },
    {
      "constant": true,
      "inputs": [],
      "name": "batchCtr",
      "outputs": [
        {
          "internalType": "uint256",
          "name": "",
          "type": "uint256"
        }
      ],
      "payable": false,
      "stateMutability": "view",
      "type": "function"
    },
    {
      "constant": true,
      "inputs": [],
      "name": "labCtr",
      "outputs": [
        {
          "internalType": "uint256",
          "name": "",
          "type": "uint256"
        }
      ],
      "payable": false,
      "stateMutability": "view",
      "type": "function"
    },
    {
      "constant": true,
      "inputs": [],
      "name": "pharmacyCtr",
      "outputs": [
        {
          "internalType": "uint256",
          "name": "",
          "type": "uint256"
        }
      ],
      "payable": false,
      "stateMutability": "view",
      "type": "function"
    },
    {
      "constant": true,
      "inputs": [],
      "name": "supplierCtr",
      "outputs": [
        {
          "internalType": "uint256",
          "name": "",
          "type": "uint256"
        }
      ],
      "payable": false,
      "stateMutability": "view",
      "type": "function"
    },
    {
      "constant": true,
      "inputs": [],
      "name": "wholesalerCtr",
      "outputs": [
        {
          "internalType": "uint256",
          "name": "",
          "type": "uint256"
        }
      ],
      "payable": false,
      "stateMutability": "view",
      "type": "function"
    },
    {
      "constant": true,
      "inputs": [
        {
          "internalType": "uint256",
          "name": "_batchID",
          "type": "uint256"
        }
      ],
      "name": "getBatchStatus",
      "outputs": [
        {
          "internalType": "string",
          "name": "",
          "type": "string"
        }
      ],
      "payable": false,
      "stateMutability": "view",
      "type": "function"
    },
    {
      "constant": false,
      "inputs": [
        {
          "internalType": "address",
          "name": "_address",
          "type": "address"
        },
        {
          "internalType": "string",
          "name": "_name",
          "type": "string"
        },
        {
          "internalType": "string",
          "name": "_place",
          "type": "string"
        }
      ],
      "name": "addIngredientSupplier",
      "outputs": [],
      "payable": false,
      "stateMutability": "nonpayable",
      "type": "function"
    },
    {
      "constant": false,
      "inputs": [
        {
          "internalType": "address",
          "name": "_address",
          "type": "address"
        },
        {
          "internalType": "string",
          "name": "_name",
          "type": "string"
        },
        {
          "internalType": "string",
          "name": "_place",
          "type": "string"
        }
      ],
      "name": "addPharmaceuticalLab",
      "outputs": [],
      "payable": false,
      "stateMutability": "nonpayable",
      "type": "function"
    },
    {
      "constant": false,
      "inputs": [
        {
          "internalType": "address",
          "name": "_address",
          "type": "address"
        },
        {
          "internalType": "string",
          "name": "_name",
          "type": "string"
        },
        {
          "internalType": "string",
          "name": "_place",
          "type": "string"
        }
      ],
      "name": "addWholesaler",
      "outputs": [],
      "payable": false,
      "stateMutability": "nonpayable",
      "type": "function"
    },
    {
      "constant": false,
      "inputs": [
        {
          "internalType": "address",
          "name": "_address",
          "type": "address"
        },
        {
          "internalType": "string",
          "name": "_name",
          "type": "string"
        },
        {
          "internalType": "string",
          "name": "_place",
          "type": "string"
        }
      ],
      "name": "addPharmacy",
      "outputs": [],
      "payable": false,
      "stateMutability": "nonpayable",
      "type": "function"
    },
    {
      "constant": false,
      "inputs": [
        {
          "internalType": "uint256",
          "name": "_batchID",
          "type": "uint256"
        }
      ],
      "name": "sourceIngredients",
      "outputs": [],
      "payable": false,
      "stateMutability": "nonpayable",
      "type": "function"
    },
    {
      "constant": false,
      "inputs": [
        {
          "internalType": "uint256",
          "name": "_batchID",
          "type": "uint256"
        }
      ],
      "name": "produceBatch",
      "outputs": [],
      "payable": false,
      "stateMutability": "nonpayable",
      "type": "function"
    },
    {
      "constant": false,
      "inputs": [
        {
          "internalType": "uint256",
          "name": "_batchID",
          "type": "uint256"
        }
      ],
      "name": "shipToWholesaler",
      "outputs": [],
      "payable": false,
      "stateMutability": "nonpayable",
      "type": "function"
    },
    {
      "constant": false,
      "inputs": [
        {
          "internalType": "uint256",
          "name": "_batchID",
          "type": "uint256"
        }
      ],
      "name": "shipToPharmacy",
      "outputs": [],
      "payable": false,
      "stateMutability": "nonpayable",
      "type": "function"
    },
    {
      "constant": false,
      "inputs": [
        {
          "internalType": "uint256",
          "name": "_batchID",
          "type": "uint256"
        }
      ],
      "name": "dispenseToPatient",
      "outputs": [],
      "payable": false,
      "stateMutability": "nonpayable",
      "type": "function"
    },
    {
      "constant": false,
      "inputs": [
        {
          "internalType": "string",
          "name": "_drugName",
          "type": "string"
        },
        {
          "internalType": "string",
          "name": "_batchDescription",
          "type": "string"
        }
      ],
      "name": "createDrugBatch",
      "outputs": [],
      "payable": false,
      "stateMutability": "nonpayable",
      "type": "function"
    }
  ],
  "bytecode": "0x60806040526000600155600060025560006003556000600455600060055534801561002957600080fd5b50336000806101000a81548173ffffffffffffffffffffffffffffffffffffffff021916908373ffffffffffffffffffffffffffffffffffffffff160217905550613492806100796000396000f3fe608060405234801561001057600080fd5b50600436106101425760003560e01c8063883c4cd9116100b8578063bd5327621161007c578063bd53276214610e16578063c7650eab14610f68578063c856363214610f96578063f07b162614610fc4578063f459721c14610fe2578063ff8a17511461112f57610142565b8063883c4cd914610ac35780638ceb8b5c14610ae157806391db74a514610c2c578063b4a99a4e14610c5a578063b9835aa314610ca457610142565b80634dba48251161010a5780634dba4825146104d4578063599d68cb146106465780637ca5a90c146107b85780637e782e691461092a5780637fc219801461095857806387c0aa5614610aa557610142565b80630830d48f1461014757806323c55dfa1461017557806324b2dff114610193578063250d3801146102e05780632d1bbc8e1461042d575b600080fd5b6101736004803603602081101561015d57600080fd5b810190808035906020019092919050505061114d565b005b61017d6112a8565b6040518082815260200191505060405180910390f35b6101bf600480360360208110156101a957600080fd5b81019080803590602001909291905050506112ae565b604051808573ffffffffffffffffffffffffffffffffffffffff1673ffffffffffffffffffffffffffffffffffffffff1681526020018481526020018060200180602001838103835285818151815260200191508051906020019080838360005b8381101561023b578082015181840152602081019050610220565b50505050905090810190601f1680156102685780820380516001836020036101000a031916815260200191505b50838103825284818151815260200191508051906020019080838360005b838110156102a1578082015181840152602081019050610286565b50505050905090810190601f1680156102ce5780820380516001836020036101000a031916815260200191505b50965050505050505060405180910390f35b61030c600480360360208110156102f657600080fd5b810190808035906020019092919050505061142e565b604051808573ffffffffffffffffffffffffffffffffffffffff1673ffffffffffffffffffffffffffffffffffffffff1681526020018481526020018060200180602001838103835285818151815260200191508051906020019080838360005b8381101561038857808201518184015260208101905061036d565b50505050905090810190601f1680156103b55780820380516001836020036101000a031916815260200191505b50838103825284818151815260200191508051906020019080838360005b838110156103ee5780820151818401526020810190506103d3565b50505050905090810190601f16801561041b5780820380516001836020036101000a031916815260200191505b50965050505050505060405180910390f35b6104596004803603602081101561044357600080fd5b81019080803590602001909291905050506115ae565b6040518080602001828103825283818151815260200191508051906020019080838360005b8381101561049957808201518184015260208101905061047e565b50505050905090810190601f1680156104c65780820380516001836020036101000a031916815260200191505b509250505060405180910390f35b610644600480360360608110156104ea57600080fd5b81019080803573ffffffffffffffffffffffffffffffffffffffff1690602001909291908035906020019064010000000081111561052757600080fd5b82018360208201111561053957600080fd5b8035906020019184600183028401116401000000008311171561055b57600080fd5b91908080601f016020809104026020016040519081016040528093929190818152602001838380828437600081840152601f19601f820116905080830192505050505050509192919290803590602001906401000000008111156105be57600080fd5b8201836020820111156105d057600080fd5b803590602001918460018302840111640100000000831117156105f257600080fd5b91908080601f016020809104026020016040519081016040528093929190818152602001838380828437600081840152601f19601f8201169050808301925050505050505091929192905050506118be565b005b6107b66004803603606081101561065c57600080fd5b81019080803573ffffffffffffffffffffffffffffffffffffffff1690602001909291908035906020019064010000000081111561069957600080fd5b8201836020820111156106ab57600080fd5b803590602001918460018302840111640100000000831117156106cd57600080fd5b91908080601f016020809104026020016040519081016040528093929190818152602001838380828437600081840152601f19601f8201169050808301925050505050505091929192908035906020019064010000000081111561073057600080fd5b82018360208201111561074257600080fd5b8035906020019184600183028401116401000000008311171561076457600080fd5b91908080601f016020809104026020016040519081016040528093929190818152602001838380828437600081840152601f19601f820116905080830192505050505050509192919290505050611b8a565b005b610928600480360360608110156107ce57600080fd5b81019080803573ffffffffffffffffffffffffffffffffffffffff1690602001909291908035906020019064010000000081111561080b57600080fd5b82018360208201111561081d57600080fd5b8035906020019184600183028401116401000000008311171561083f57600080fd5b91908080601f016020809104026020016040519081016040528093929190818152602001838380828437600081840152601f19601f820116905080830192505050505050509192919290803590602001906401000000008111156108a257600080fd5b8201836020820111156108b457600080fd5b803590602001918460018302840111640100000000831117156108d657600080fd5b91908080601f016020809104026020016040519081016040528093929190818152602001838380828437600081840152601f19601f820116905080830192505050505050509192919290505050611e56565b005b6109566004803603602081101561094057600080fd5b8101908080359060200190929190505050612122565b005b6109846004803603602081101561096e57600080fd5b8101908080359060200190929190505050612276565b604051808573ffffffffffffffffffffffffffffffffffffffff1673ffffffffffffffffffffffffffffffffffffffff1681526020018481526020018060200180602001838103835285818151815260200191508051906020019080838360005b83811015610a005780820151818401526020810190506109e5565b50505050905090810190601f168015610a2d5780820380516001836020036101000a031916815260200191505b50838103825284818151815260200191508051906020019080838360005b83811015610a66578082015181840152602081019050610a4b565b50505050905090810190601f168015610a935780820380516001836020036101000a031916815260200191505b50965050505050505060405180910390f35b610aad6123f6565b6040518082815260200191505060405180910390f35b610acb6123fc565b6040518082815260200191505060405180910390f35b610b0d60048036036020811015610af757600080fd5b8101908080359060200190929190505050612402565b604051808981526020018060200180602001888152602001878152602001868152602001858152602001846005811115610b4357fe5b60ff16815260200183810383528a818151815260200191508051906020019080838360005b83811015610b83578082015181840152602081019050610b68565b50505050905090810190601f168015610bb05780820380516001836020036101000a031916815260200191505b50838103825289818151815260200191508051906020019080838360005b83811015610be9578082015181840152602081019050610bce565b50505050905090810190601f168015610c165780820380516001836020036101000a031916815260200191505b509a505050505050505050505060405180910390f35b610c5860048036036020811015610c4257600080fd5b8101908080359060200190929190505050612587565b005b610c626126db565b604051808273ffffffffffffffffffffffffffffffffffffffff1673ffffffffffffffffffffffffffffffffffffffff16815260200191505060405180910390f35b610e1460048036036060811015610cba57600080fd5b81019080803573ffffffffffffffffffffffffffffffffffffffff16906020019092919080359060200190640100000000811115610cf757600080fd5b820183602082011115610d0957600080fd5b80359060200191846001830284011164010000000083111715610d2b57600080fd5b91908080601f016020809104026020016040519081016040528093929190818152602001838380828437600081840152601f19601f82011690508083019250505050505050919291929080359060200190640100000000811115610d8e57600080fd5b820183602082011115610da057600080fd5b80359060200191846001830284011164010000000083111715610dc257600080fd5b91908080601f016020809104026020016040519081016040528093929190818152602001838380828437600081840152601f19601f820116905080830192505050505050509192919290505050612700565b005b610f6660048036036040811015610e2c57600080fd5b8101908080359060200190640100000000811115610e4957600080fd5b820183602082011115610e5b57600080fd5b80359060200191846001830284011164010000000083111715610e7d57600080fd5b91908080601f016020809104026020016040519081016040528093929190818152602001838380828437600081840152601f19601f82011690508083019250505050505050919291929080359060200190640100000000811115610ee057600080fd5b820183602082011115610ef257600080fd5b80359060200191846001830284011164010000000083111715610f1457600080fd5b91908080601f016020809104026020016040519081016040528093929190818152602001838380828437600081840152601f19601f8201169050808301925050505050505091929192905050506129cc565b005b610f9460048036036020811015610f7e57600080fd5b8101908080359060200190929190505050612c80565b005b610fc260048036036020811015610fac57600080fd5b8101908080359060200190929190505050612dd4565b005b610fcc612f28565b6040518082815260200191505060405180910390f35b61100e60048036036020811015610ff857600080fd5b8101908080359060200190929190505050612f2e565b604051808573ffffffffffffffffffffffffffffffffffffffff1673ffffffffffffffffffffffffffffffffffffffff1681526020018481526020018060200180602001838103835285818151815260200191508051906020019080838360005b8381101561108a57808201518184015260208101905061106f565b50505050905090810190601f1680156110b75780820380516001836020036101000a031916815260200191505b50838103825284818151815260200191508051906020019080838360005b838110156110f05780820151818401526020810190506110d5565b50505050905090810190601f16801561111d5780820380516001836020036101000a031916815260200191505b50965050505050505060405180910390f35b6111376130ae565b6040518082815260200191505060405180910390f35b60008111801561115f57506001548111155b61116857600080fd5b6000611173336130b4565b90506000811161118257600080fd5b600660008381526020019081526020016000206006015481146111a457600080fd5b600460058111156111b157fe5b6006600084815260200190815260200160002060070160009054906101000a900460ff1660058111156111e057fe5b146111ea57600080fd5b60056006600084815260200190815260200160002060070160006101000a81548160ff0219169083600581111561121d57fe5b02179055507f3b2c8425006b21fd3664f24950656f6f99d995803cf25411a73ea618c0280238826005336040518084815260200183600581111561125d57fe5b60ff1681526020018273ffffffffffffffffffffffffffffffffffffffff1673ffffffffffffffffffffffffffffffffffffffff168152602001935050505060405180910390a15050565b60015481565b60076020528060005260406000206000915090508060000160009054906101000a900473ffffffffffffffffffffffffffffffffffffffff1690806001015490806002018054600181600116156101000203166002900480601f0160208091040260200160405190810160405280929190818152602001828054600181600116156101000203166002900480156113865780601f1061135b57610100808354040283529160200191611386565b820191906000526020600020905b81548152906001019060200180831161136957829003601f168201915b505050505090806003018054600181600116156101000203166002900480601f0160208091040260200160405190810160405280929190818152602001828054600181600116156101000203166002900480156114245780601f106113f957610100808354040283529160200191611424565b820191906000526020600020905b81548152906001019060200180831161140757829003601f168201915b5050505050905084565b60096020528060005260406000206000915090508060000160009054906101000a900473ffffffffffffffffffffffffffffffffffffffff1690806001015490806002018054600181600116156101000203166002900480601f0160208091040260200160405190810160405280929190818152602001828054600181600116156101000203166002900480156115065780601f106114db57610100808354040283529160200191611506565b820191906000526020600020905b8154815290600101906020018083116114e957829003601f168201915b505050505090806003018054600181600116156101000203166002900480601f0160208091040260200160405190810160405280929190818152602001828054600181600116156101000203166002900480156115a45780601f10611579576101008083540402835291602001916115a4565b820191906000526020600020905b81548152906001019060200180831161158757829003601f168201915b5050505050905084565b60606000600154116115bf57600080fd5b600060058111156115cc57fe5b6006600084815260200190815260200160002060070160009054906101000a900460ff1660058111156115fb57fe5b141561163e576040518060400160405280601381526020017f4261746368204f726465722050656e64696e670000000000000000000000000081525090506118b9565b6001600581111561164b57fe5b6006600084815260200190815260200160002060070160009054906101000a900460ff16600581111561167a57fe5b14156116bd576040518060400160405280601981526020017f496e6772656469656e747320536f75726365642053746167650000000000000081525090506118b9565b600260058111156116ca57fe5b6006600084815260200190815260200160002060070160009054906101000a900460ff1660058111156116f957fe5b141561173c576040518060400160405280601081526020017f50726f64756374696f6e2053746167650000000000000000000000000000000081525090506118b9565b6003600581111561174957fe5b6006600084815260200190815260200160002060070160009054906101000a900460ff16600581111561177857fe5b14156117bb576040518060400160405280601f81526020017f446973747269627574696f6e2053746167652028496e205472616e736974290081525090506118b9565b600460058111156117c857fe5b6006600084815260200190815260200160002060070160009054906101000a900460ff1660058111156117f757fe5b141561183a576040518060400160405280601381526020017f53746f636b656420617420506861726d6163790000000000000000000000000081525090506118b9565b60058081111561184657fe5b6006600084815260200190815260200160002060070160009054906101000a900460ff16600581111561187557fe5b14156118b8576040518060400160405280601481526020017f44697370656e73656420746f2050617469656e7400000000000000000000000081525090506118b9565b5b919050565b6000809054906101000a900473ffffffffffffffffffffffffffffffffffffffff1673ffffffffffffffffffffffffffffffffffffffff163373ffffffffffffffffffffffffffffffffffffffff161461191757600080fd5b60026000815480929190600101919050555060405180608001604052808473ffffffffffffffffffffffffffffffffffffffff16815260200160025481526020018381526020018281525060076000600254815260200190815260200160002060008201518160000160006101000a81548173ffffffffffffffffffffffffffffffffffffffff021916908373ffffffffffffffffffffffffffffffffffffffff1602179055506020820151816001015560408201518160020190805190602001906119e49291906133b8565b506060820151816003019080519060200190611a019291906133b8565b509050507f05a506368c757d42dc014a296b84d0a6ac9602c3ae3c0a600afc3a81fd89afd260025484848460405180806020018681526020018573ffffffffffffffffffffffffffffffffffffffff1673ffffffffffffffffffffffffffffffffffffffff16815260200180602001806020018481038452600e8152602001807f536f7572636520706172746e6572000000000000000000000000000000000000815250602001848103835286818151815260200191508051906020019080838360005b83811015611ae0578082015181840152602081019050611ac5565b50505050905090810190601f168015611b0d5780820380516001836020036101000a031916815260200191505b50848103825285818151815260200191508051906020019080838360005b83811015611b46578082015181840152602081019050611b2b565b50505050905090810190601f168015611b735780820380516001836020036101000a031916815260200191505b5097505050505050505060405180910390a1505050565b6000809054906101000a900473ffffffffffffffffffffffffffffffffffffffff1673ffffffffffffffffffffffffffffffffffffffff163373ffffffffffffffffffffffffffffffffffffffff1614611be357600080fd5b60056000815480929190600101919050555060405180608001604052808473ffffffffffffffffffffffffffffffffffffffff168152602001600554815260200183815260200182815250600a6000600554815260200190815260200160002060008201518160000160006101000a81548173ffffffffffffffffffffffffffffffffffffffff021916908373ffffffffffffffffffffffffffffffffffffffff160217905550602082015181600101556040820151816002019080519060200190611cb09291906133b8565b506060820151816003019080519060200190611ccd9291906133b8565b509050507f05a506368c757d42dc014a296b84d0a6ac9602c3ae3c0a600afc3a81fd89afd260055484848460405180806020018681526020018573ffffffffffffffffffffffffffffffffffffffff1673ffffffffffffffffffffffffffffffffffffffff16815260200180602001806020018481038452600b8152602001807f43617265206f75746c6574000000000000000000000000000000000000000000815250602001848103835286818151815260200191508051906020019080838360005b83811015611dac578082015181840152602081019050611d91565b50505050905090810190601f168015611dd95780820380516001836020036101000a031916815260200191505b50848103825285818151815260200191508051906020019080838360005b83811015611e12578082015181840152602081019050611df7565b50505050905090810190601f168015611e3f5780820380516001836020036101000a031916815260200191505b5097505050505050505060405180910390a1505050565b6000809054906101000a900473ffffffffffffffffffffffffffffffffffffffff1673ffffffffffffffffffffffffffffffffffffffff163373ffffffffffffffffffffffffffffffffffffffff1614611eaf57600080fd5b60036000815480929190600101919050555060405180608001604052808473ffffffffffffffffffffffffffffffffffffffff16815260200160035481526020018381526020018281525060086000600354815260200190815260200160002060008201518160000160006101000a81548173ffffffffffffffffffffffffffffffffffffffff021916908373ffffffffffffffffffffffffffffffffffffffff160217905550602082015181600101556040820151816002019080519060200190611f7c9291906133b8565b506060820151816003019080519060200190611f999291906133b8565b509050507f05a506368c757d42dc014a296b84d0a6ac9602c3ae3c0a600afc3a81fd89afd260035484848460405180806020018681526020018573ffffffffffffffffffffffffffffffffffffffff1673ffffffffffffffffffffffffffffffffffffffff1681526020018060200180602001848103845260128152602001807f466f726d756c6174696f6e2063656e7465720000000000000000000000000000815250602001848103835286818151815260200191508051906020019080838360005b8381101561207857808201518184015260208101905061205d565b50505050905090810190601f1680156120a55780820380516001836020036101000a031916815260200191505b50848103825285818151815260200191508051906020019080838360005b838110156120de5780820151818401526020810190506120c3565b50505050905090810190601f16801561210b5780820380516001836020036101000a031916815260200191505b5097505050505050505060405180910390a1505050565b60008111801561213457506001548111155b61213d57600080fd5b6000612148336130b4565b90506000811161215757600080fd5b6003600581111561216457fe5b6006600084815260200190815260200160002060070160009054906101000a900460ff16600581111561219357fe5b1461219d57600080fd5b80600660008481526020019081526020016000206006018190555060046006600084815260200190815260200160002060070160006101000a81548160ff021916908360058111156121eb57fe5b02179055507f3b2c8425006b21fd3664f24950656f6f99d995803cf25411a73ea618c0280238826004336040518084815260200183600581111561222b57fe5b60ff1681526020018273ffffffffffffffffffffffffffffffffffffffff1673ffffffffffffffffffffffffffffffffffffffff168152602001935050505060405180910390a15050565b60086020528060005260406000206000915090508060000160009054906101000a900473ffffffffffffffffffffffffffffffffffffffff1690806001015490806002018054600181600116156101000203166002900480601f01602080910402602001604051908101604052809291908181526020018280546001816001161561010002031660029004801561234e5780601f106123235761010080835404028352916020019161234e565b820191906000526020600020905b81548152906001019060200180831161233157829003601f168201915b505050505090806003018054600181600116156101000203166002900480601f0160208091040260200160405190810160405280929190818152602001828054600181600116156101000203166002900480156123ec5780601f106123c1576101008083540402835291602001916123ec565b820191906000526020600020905b8154815290600101906020018083116123cf57829003601f168201915b5050505050905084565b60045481565b60055481565b6006602052806000526040600020600091509050806000015490806001018054600181600116156101000203166002900480601f0160208091040260200160405190810160405280929190818152602001828054600181600116156101000203166002900480156124b45780601f10612489576101008083540402835291602001916124b4565b820191906000526020600020905b81548152906001019060200180831161249757829003601f168201915b505050505090806002018054600181600116156101000203166002900480601f0160208091040260200160405190810160405280929190818152602001828054600181600116156101000203166002900480156125525780601f1061252757610100808354040283529160200191612552565b820191906000526020600020905b81548152906001019060200180831161253557829003601f168201915b5050505050908060030154908060040154908060050154908060060154908060070160009054906101000a900460ff16905088565b60008111801561259957506001548111155b6125a257600080fd5b60006125ad33613175565b9050600081116125bc57600080fd5b600060058111156125c957fe5b6006600084815260200190815260200160002060070160009054906101000a900460ff1660058111156125f857fe5b1461260257600080fd5b80600660008481526020019081526020016000206003018190555060016006600084815260200190815260200160002060070160006101000a81548160ff0219169083600581111561265057fe5b02179055507f3b2c8425006b21fd3664f24950656f6f99d995803cf25411a73ea618c0280238826001336040518084815260200183600581111561269057fe5b60ff1681526020018273ffffffffffffffffffffffffffffffffffffffff1673ffffffffffffffffffffffffffffffffffffffff168152602001935050505060405180910390a15050565b6000809054906101000a900473ffffffffffffffffffffffffffffffffffffffff1681565b6000809054906101000a900473ffffffffffffffffffffffffffffffffffffffff1673ffffffffffffffffffffffffffffffffffffffff163373ffffffffffffffffffffffffffffffffffffffff161461275957600080fd5b60046000815480929190600101919050555060405180608001604052808473ffffffffffffffffffffffffffffffffffffffff16815260200160045481526020018381526020018281525060096000600454815260200190815260200160002060008201518160000160006101000a81548173ffffffffffffffffffffffffffffffffffffffff021916908373ffffffffffffffffffffffffffffffffffffffff1602179055506020820151816001015560408201518160020190805190602001906128269291906133b8565b5060608201518160030190805190602001906128439291906133b8565b509050507f05a506368c757d42dc014a296b84d0a6ac9602c3ae3c0a600afc3a81fd89afd260045484848460405180806020018681526020018573ffffffffffffffffffffffffffffffffffffffff1673ffffffffffffffffffffffffffffffffffffffff16815260200180602001806020018481038452600b8152602001807f5472616e73697420687562000000000000000000000000000000000000000000815250602001848103835286818151815260200191508051906020019080838360005b83811015612922578082015181840152602081019050612907565b50505050905090810190601f16801561294f5780820380516001836020036101000a031916815260200191505b50848103825285818151815260200191508051906020019080838360005b8381101561298857808201518184015260208101905061296d565b50505050905090810190601f1680156129b55780820380516001836020036101000a031916815260200191505b5097505050505050505060405180910390a1505050565b6000809054906101000a900473ffffffffffffffffffffffffffffffffffffffff1673ffffffffffffffffffffffffffffffffffffffff163373ffffffffffffffffffffffffffffffffffffffff1614612a2557600080fd5b6000600254118015612a3957506000600354115b8015612a4757506000600454115b8015612a5557506000600554115b612a5e57600080fd5b60016000815480929190600101919050555060405180610100016040528060015481526020018381526020018281526020016000815260200160008152602001600081526020016000815260200160006005811115612ab957fe5b815250600660006001548152602001908152602001600020600082015181600001556020820151816001019080519060200190612af79291906133b8565b506040820151816002019080519060200190612b149291906133b8565b50606082015181600301556080820151816004015560a0820151816005015560c0820151816006015560e08201518160070160006101000a81548160ff02191690836005811115612b6157fe5b02179055509050507f77b8d629cfb95c95ecba8515dd57744842dc466e02bd4d2c4d35bd417daa14586001548383604051808481526020018060200180602001838103835285818151815260200191508051906020019080838360005b83811015612bd9578082015181840152602081019050612bbe565b50505050905090810190601f168015612c065780820380516001836020036101000a031916815260200191505b50838103825284818151815260200191508051906020019080838360005b83811015612c3f578082015181840152602081019050612c24565b50505050905090810190601f168015612c6c5780820380516001836020036101000a031916815260200191505b509550505050505060405180910390a15050565b600081118015612c9257506001548111155b612c9b57600080fd5b6000612ca633613236565b905060008111612cb557600080fd5b60026005811115612cc257fe5b6006600084815260200190815260200160002060070160009054906101000a900460ff166005811115612cf157fe5b14612cfb57600080fd5b80600660008481526020019081526020016000206005018190555060036006600084815260200190815260200160002060070160006101000a81548160ff02191690836005811115612d4957fe5b02179055507f3b2c8425006b21fd3664f24950656f6f99d995803cf25411a73ea618c02802388260033360405180848152602001836005811115612d8957fe5b60ff1681526020018273ffffffffffffffffffffffffffffffffffffffff1673ffffffffffffffffffffffffffffffffffffffff168152602001935050505060405180910390a15050565b600081118015612de657506001548111155b612def57600080fd5b6000612dfa336132f7565b905060008111612e0957600080fd5b60016005811115612e1657fe5b6006600084815260200190815260200160002060070160009054906101000a900460ff166005811115612e4557fe5b14612e4f57600080fd5b80600660008481526020019081526020016000206004018190555060026006600084815260200190815260200160002060070160006101000a81548160ff02191690836005811115612e9d57fe5b02179055507f3b2c8425006b21fd3664f24950656f6f99d995803cf25411a73ea618c02802388260023360405180848152602001836005811115612edd57fe5b60ff1681526020018273ffffffffffffffffffffffffffffffffffffffff1673ffffffffffffffffffffffffffffffffffffffff168152602001935050505060405180910390a15050565b60025481565b600a6020528060005260406000206000915090508060000160009054906101000a900473ffffffffffffffffffffffffffffffffffffffff1690806001015490806002018054600181600116156101000203166002900480601f0160208091040260200160405190810160405280929190818152602001828054600181600116156101000203166002900480156130065780601f10612fdb57610100808354040283529160200191613006565b820191906000526020600020905b815481529060010190602001808311612fe957829003601f168201915b505050505090806003018054600181600116156101000203166002900480601f0160208091040260200160405190810160405280929190818152602001828054600181600116156101000203166002900480156130a45780601f10613079576101008083540402835291602001916130a4565b820191906000526020600020905b81548152906001019060200180831161308757829003601f168201915b5050505050905084565b60035481565b600080600554116130c457600080fd5b6000600190505b600554811161316a578273ffffffffffffffffffffffffffffffffffffffff16600a600083815260200190815260200160002060000160009054906101000a900473ffffffffffffffffffffffffffffffffffffffff1673ffffffffffffffffffffffffffffffffffffffff16141561315d57600a600082815260200190815260200160002060010154915050613170565b80806001019150506130cb565b50600090505b919050565b6000806002541161318557600080fd5b6000600190505b600254811161322b578273ffffffffffffffffffffffffffffffffffffffff166007600083815260200190815260200160002060000160009054906101000a900473ffffffffffffffffffffffffffffffffffffffff1673ffffffffffffffffffffffffffffffffffffffff16141561321e576007600082815260200190815260200160002060010154915050613231565b808060010191505061318c565b50600090505b919050565b6000806004541161324657600080fd5b6000600190505b60045481116132ec578273ffffffffffffffffffffffffffffffffffffffff166009600083815260200190815260200160002060000160009054906101000a900473ffffffffffffffffffffffffffffffffffffffff1673ffffffffffffffffffffffffffffffffffffffff1614156132df5760096000828152602001908152602001600020600101549150506132f2565b808060010191505061324d565b50600090505b919050565b6000806003541161330757600080fd5b6000600190505b60035481116133ad578273ffffffffffffffffffffffffffffffffffffffff166008600083815260200190815260200160002060000160009054906101000a900473ffffffffffffffffffffffffffffffffffffffff1673ffffffffffffffffffffffffffffffffffffffff1614156133a05760086000828152602001908152602001600020600101549150506133b3565b808060010191505061330e565b50600090505b919050565b828054600181600116156101000203166002900490600052602060002090601f016020900481019282601f106133f957805160ff1916838001178555613427565b82800160010185558215613427579182015b8281111561342657825182559160200191906001019061340b565b5b5090506134349190613438565b5090565b61345a91905b8082111561345657600081600090555060010161343e565b5090565b9056fea265627a7a7231582009b740fbabaa51637b40ecb3a1094b04f3f84b2d99fd7decfae7da77e2b8210964736f6c63430005100032",
  "source": "// SPDX-License-Identifier: MIT\r\npragma solidity >=0.4.22 <0.9.0;\r\n\r\ncontract MedChain {\r\n    // Smart Contract owner will be the person who deploys the contract\r\n    // only they can authorize various roles.\r\n    address public Owner;\r\n\r\n    // This constructor is called when the smart contract is deployed.\r\n    constructor() public {\r\n        Owner = msg.sender;\r\n    }\r\n\r\n    // Modifier to make sure only the owner is using the function\r\n    modifier onlyByOwner() {\r\n        require(msg.sender == Owner);\r\n        _;\r\n    }\r\n\r\n    // Stages of a drug batch in the pharma supply chain\r\n    enum BatchStatus {\r\n        Pending,\r\n        IngredientsSourced,\r\n        Production,\r\n        InTransit,\r\n        AtPharmacy,\r\n        Dispensed\r\n    }\r\n\r\n    // Drug Batch count\r\n    uint256 public batchCtr = 0;\r\n    // Ingredient Supplier count\r\n    uint256 public supplierCtr = 0;\r\n    // Pharmaceutical Lab count\r\n    uint256 public labCtr = 0;\r\n    // Wholesaler count\r\n    uint256 public wholesalerCtr = 0;\r\n    // Pharmacy count\r\n    uint256 public pharmacyCtr = 0;\r\n\r\n    // ======================\r\n    //        EVENTS\r\n    // ======================\r\n\r\n    // Event fired whenever a new organization is onboarded\r\n    event RoleRegistered(\r\n        string role,        // e.g. \"Source partner\", \"Formulation center\"\r\n        uint256 id,\r\n        address addr,\r\n        string name,\r\n        string place\r\n    );\r\n\r\n    // Event fired whenever a new batch is created\r\n    event BatchCreated(\r\n        uint256 batchId,\r\n        string drugName,\r\n        string batchDescription\r\n    );\r\n\r\n    // Event fired whenever a batch status is updated\r\n    event BatchStatusChanged(\r\n        uint256 batchId,\r\n        BatchStatus newStatus,\r\n        address actor\r\n    );\r\n\r\n    // ======================\r\n    //       STRUCTS\r\n    // ======================\r\n\r\n    // To store information about the drug batch\r\n    struct DrugBatch {\r\n        uint256 batchId;          // unique batch id\r\n        string drugName;          // name of the drug\r\n        string batchDescription;  // about this batch\r\n        uint256 supplierId;       // id of the Ingredient Supplier for this batch\r\n        uint256 labId;            // id of the Lab for this batch\r\n        uint256 wholesalerId;     // id of the Wholesaler for this batch\r\n        uint256 pharmacyId;       // id of the Pharmacy for this batch\r\n        BatchStatus status;       // current batch status\r\n    }\r\n\r\n    // To store information about ingredient supplier\r\n    struct IngredientSupplier {\r\n        address addr;\r\n        uint256 id;      // supplier id\r\n        string name;     // Name of the ingredient supplier\r\n        string place;    // Place the supplier is based in\r\n    }\r\n\r\n    // To store information about pharmaceutical lab\r\n    struct PharmaceuticalLab {\r\n        address addr;\r\n        uint256 id;      // lab id\r\n        string name;     // Name of the lab\r\n        string place;    // Place the lab is based in\r\n    }\r\n\r\n    // To store information about wholesaler\r\n    struct Wholesaler {\r\n        address addr;\r\n        uint256 id;      // wholesaler id\r\n        string name;     // Name of the wholesaler\r\n        string place;    // Place the wholesaler is based in\r\n    }\r\n\r\n    // To store information about pharmacy\r\n    struct Pharmacy {\r\n        address addr;\r\n        uint256 id;      // pharmacy id\r\n        string name;     // Name of the pharmacy\r\n        string place;    // Place the pharmacy is based in\r\n    }\r\n\r\n    // ======================\r\n    //      STORAGE\r\n    // ======================\r\n\r\n    // To store all the drug batches on the blockchain\r\n    mapping(uint256 => DrugBatch) public DrugBatches;\r\n\r\n    // To store all the ingredient suppliers on the blockchain\r\n    mapping(uint256 => IngredientSupplier) public Suppliers;\r\n\r\n    // To store all the labs on the blockchain\r\n    mapping(uint256 => PharmaceuticalLab) public Labs;\r\n\r\n    // To store all the wholesalers on the blockchain\r\n    mapping(uint256 => Wholesaler) public Wholesalers;\r\n\r\n    // To store all the pharmacies on the blockchain\r\n    mapping(uint256 => Pharmacy) public Pharmacies;\r\n\r\n    // ======================\r\n    //     VIEW HELPERS\r\n    // ======================\r\n\r\n    // To show status to client applications as a string\r\n    function getBatchStatus(\r\n        uint256 _batchID\r\n    ) public view returns (string memory) {\r\n        require(batchCtr > 0);\r\n        if (DrugBatches[_batchID].status == BatchStatus.Pending)\r\n            return \"Batch Order Pending\";\r\n        else if (DrugBatches[_batchID].status == BatchStatus.IngredientsSourced)\r\n            return \"Ingredients Sourced Stage\";\r\n        else if (DrugBatches[_batchID].status == BatchStatus.Production)\r\n            return \"Production Stage\";\r\n        else if (DrugBatches[_batchID].status == BatchStatus.InTransit)\r\n            return \"Distribution Stage (In Transit)\";\r\n        else if (DrugBatches[_batchID].status == BatchStatus.AtPharmacy)\r\n            return \"Stocked at Pharmacy\";\r\n        else if (DrugBatches[_batchID].status == BatchStatus.Dispensed)\r\n            return \"Dispensed to Patient\";\r\n    }\r\n\r\n    // ======================\r\n    //   ROLE REGISTRATION\r\n    // ======================\r\n\r\n    // To add ingredient suppliers. Only contract owner can add a new one.\r\n    function addIngredientSupplier(\r\n        address _address,\r\n        string memory _name,\r\n        string memory _place\r\n    ) public onlyByOwner {\r\n        supplierCtr++;\r\n        Suppliers[supplierCtr] = IngredientSupplier(\r\n            _address,\r\n            supplierCtr,\r\n            _name,\r\n            _place\r\n        );\r\n\r\n        emit RoleRegistered(\"Source partner\", supplierCtr, _address, _name, _place);\r\n    }\r\n\r\n    // To add a pharmaceutical lab. Only contract owner can add a new one.\r\n    function addPharmaceuticalLab(\r\n        address _address,\r\n        string memory _name,\r\n        string memory _place\r\n    ) public onlyByOwner {\r\n        labCtr++;\r\n        Labs[labCtr] = PharmaceuticalLab(\r\n            _address,\r\n            labCtr,\r\n            _name,\r\n            _place\r\n        );\r\n\r\n        emit RoleRegistered(\"Formulation center\", labCtr, _address, _name, _place);\r\n    }\r\n\r\n    // To add a wholesaler. Only contract owner can add a new one.\r\n    function addWholesaler(\r\n        address _address,\r\n        string memory _name,\r\n        string memory _place\r\n    ) public onlyByOwner {\r\n        wholesalerCtr++;\r\n        Wholesalers[wholesalerCtr] = Wholesaler(\r\n            _address,\r\n            wholesalerCtr,\r\n            _name,\r\n            _place\r\n        );\r\n\r\n        emit RoleRegistered(\"Transit hub\", wholesalerCtr, _address, _name, _place);\r\n    }\r\n\r\n    // To add a pharmacy. Only contract owner can add a new one.\r\n    function addPharmacy(\r\n        address _address,\r\n        string memory _name,\r\n        string memory _place\r\n    ) public onlyByOwner {\r\n        pharmacyCtr++;\r\n        Pharmacies[pharmacyCtr] = Pharmacy(\r\n            _address,\r\n            pharmacyCtr,\r\n            _name,\r\n            _place\r\n        );\r\n\r\n        emit RoleRegistered(\"Care outlet\", pharmacyCtr, _address, _name, _place);\r\n    }\r\n\r\n    // ======================\r\n    //     BATCH FLOW\r\n    // ======================\r\n\r\n    // To supply ingredients from supplier to the lab\r\n    function sourceIngredients(uint256 _batchID) public {\r\n        require(_batchID > 0 && _batchID <= batchCtr);\r\n\r\n        uint256 _id = findSupplier(msg.sender);\r\n        require(_id > 0);\r\n\r\n        require(DrugBatches[_batchID].status == BatchStatus.Pending);\r\n\r\n        DrugBatches[_batchID].supplierId = _id;\r\n        DrugBatches[_batchID].status = BatchStatus.IngredientsSourced;\r\n\r\n        emit BatchStatusChanged(_batchID, BatchStatus.IngredientsSourced, msg.sender);\r\n    }\r\n\r\n    // To produce the drug batch\r\n    function produceBatch(uint256 _batchID) public {\r\n        require(_batchID > 0 && _batchID <= batchCtr);\r\n\r\n        uint256 _id = findLab(msg.sender);\r\n        require(_id > 0);\r\n\r\n        require(\r\n            DrugBatches[_batchID].status == BatchStatus.IngredientsSourced\r\n        );\r\n\r\n        DrugBatches[_batchID].labId = _id;\r\n        DrugBatches[_batchID].status = BatchStatus.Production;\r\n\r\n        emit BatchStatusChanged(_batchID, BatchStatus.Production, msg.sender);\r\n    }\r\n\r\n    // To ship batches from Lab to Wholesaler\r\n    function shipToWholesaler(uint256 _batchID) public {\r\n        require(_batchID > 0 && _batchID <= batchCtr);\r\n\r\n        uint256 _id = findWholesaler(msg.sender);\r\n        require(_id > 0);\r\n\r\n        require(DrugBatches[_batchID].status == BatchStatus.Production);\r\n\r\n        DrugBatches[_batchID].wholesalerId = _id;\r\n        DrugBatches[_batchID].status = BatchStatus.InTransit;\r\n\r\n        emit BatchStatusChanged(_batchID, BatchStatus.InTransit, msg.sender);\r\n    }\r\n\r\n    // To ship batches from Wholesaler to Pharmacy\r\n    function shipToPharmacy(uint256 _batchID) public {\r\n        require(_batchID > 0 && _batchID <= batchCtr);\r\n\r\n        uint256 _id = findPharmacy(msg.sender);\r\n        require(_id > 0);\r\n\r\n        require(DrugBatches[_batchID].status == BatchStatus.InTransit);\r\n\r\n        DrugBatches[_batchID].pharmacyId = _id;\r\n        DrugBatches[_batchID].status = BatchStatus.AtPharmacy;\r\n\r\n        emit BatchStatusChanged(_batchID, BatchStatus.AtPharmacy, msg.sender);\r\n    }\r\n\r\n    // To sell medicines from pharmacy to consumer\r\n    function dispenseToPatient(uint256 _batchID) public {\r\n        require(_batchID > 0 && _batchID <= batchCtr);\r\n\r\n        uint256 _id = findPharmacy(msg.sender);\r\n        require(_id > 0);\r\n\r\n        // Only the correct pharmacy can mark as dispensed\r\n        require(_id == DrugBatches[_batchID].pharmacyId);\r\n        require(DrugBatches[_batchID].status == BatchStatus.AtPharmacy);\r\n\r\n        DrugBatches[_batchID].status = BatchStatus.Dispensed;\r\n\r\n        emit BatchStatusChanged(_batchID, BatchStatus.Dispensed, msg.sender);\r\n    }\r\n\r\n    // To add new drug batches to the stock\r\n    function createDrugBatch(\r\n        string memory _drugName,\r\n        string memory _batchDescription\r\n    ) public onlyByOwner {\r\n        require(\r\n            (supplierCtr > 0) &&\r\n                (labCtr > 0) &&\r\n                (wholesalerCtr > 0) &&\r\n                (pharmacyCtr > 0)\r\n        );\r\n\r\n        batchCtr++;\r\n        DrugBatches[batchCtr] = DrugBatch(\r\n            batchCtr,\r\n            _drugName,\r\n            _batchDescription,\r\n            0,\r\n            0,\r\n            0,\r\n            0,\r\n            BatchStatus.Pending\r\n        );\r\n\r\n        emit BatchCreated(batchCtr, _drugName, _batchDescription);\r\n    }\r\n\r\n    // ======================\r\n    //   INTERNAL LOOKUPS\r\n    // ======================\r\n\r\n    // To check if Supplier is available in the blockchain\r\n    function findSupplier(address _address) private view returns (uint256) {\r\n        require(supplierCtr > 0);\r\n        for (uint256 i = 1; i <= supplierCtr; i++) {\r\n            if (Suppliers[i].addr == _address) return Suppliers[i].id;\r\n        }\r\n        return 0;\r\n    }\r\n\r\n    // To check if Lab is available in the blockchain\r\n    function findLab(address _address) private view returns (uint256) {\r\n        require(labCtr > 0);\r\n        for (uint256 i = 1; i <= labCtr; i++) {\r\n            if (Labs[i].addr == _address) return Labs[i].id;\r\n        }\r\n        return 0;\r\n    }\r\n\r\n    // To check if Wholesaler is available in the blockchain\r\n    function findWholesaler(address _address) private view returns (uint256) {\r\n        require(wholesalerCtr > 0);\r\n        for (uint256 i = 1; i <= wholesalerCtr; i++) {\r\n            if (Wholesalers[i].addr == _address) return Wholesalers[i].id;\r\n        }\r\n        return 0;\r\n    }\r\n\r\n    // To check if Pharmacy is available in the blockchain\r\n    function findPharmacy(address _address) private view returns (uint256) {\r\n        require(pharmacyCtr > 0);\r\n        for (uint256 i = 1; i <= pharmacyCtr; i++) {\r\n            if (Pharmacies[i].addr == _address) return Pharmacies[i].id;\r\n        }\r\n        return 0;\r\n    }\r\n}\r\n",
  "sourcePath": "C:\\Users\\kpate273\\Desktop\\CSE540 Project\\contracts\\MedChain.sol",
  "compiler": {
    "name": "solc",
    "version": "0.5.16+commit.9c3226ce.Emscripten.clang"
  },
  "schemaVersion": "3.4.16",
  "updatedAt": "2025-12-01T19:17:07.637Z",
  "devdoc": {
    "methods": {}
  },
  "userdoc": {
    "methods": {}
  }
}