{
  "contractName": "PharmaTrace",
  "abi": [
    {
      "inputs": [],
      "payable": false,
      "stateMutability": "nonpayable",
      "type": "constructor"
    },
    {
      "constant": true,
      "inputs": [
        {
          "internalType": "uint256",
          "name": "",
          "type": "uint256"
        }
      ],
      "name": "DrugBatches",
      "outputs": [
        {
          "internalType": "uint256",
          "name": "batchId",
          "type": "uint256"
        },
        {
          "internalType": "string",
          "name": "drugName",
          "type": "string"
        },
        {
          "internalType": "string",
          "name": "batchDescription",
          "type": "string"
        },
        {
          "internalType": "uint256",
          "name": "supplierId",
          "type": "uint256"
        },
        {
          "internalType": "uint256",
          "name": "labId",
          "type": "uint256"
        },
        {
          "internalType": "uint256",
          "name": "wholesalerId",
          "type": "uint256"
        },
        {
          "internalType": "uint256",
          "name": "pharmacyId",
          "type": "uint256"
        },
        {
          "internalType": "enum PharmaTrace.BatchStatus",
          "name": "status",
          "type": "uint8"
        }
      ],
      "payable": false,
      "stateMutability": "view",
      "type": "function"
    },
    {
      "constant": true,
      "inputs": [
        {
          "internalType": "uint256",
          "name": "",
          "type": "uint256"
        }
      ],
      "name": "Labs",
      "outputs": [
        {
          "internalType": "address",
          "name": "addr",
          "type": "address"
        },
        {
          "internalType": "uint256",
          "name": "id",
          "type": "uint256"
        },
        {
          "internalType": "string",
          "name": "name",
          "type": "string"
        },
        {
          "internalType": "string",
          "name": "place",
          "type": "string"
        }
      ],
      "payable": false,
      "stateMutability": "view",
      "type": "function"
    },
    {
      "constant": true,
      "inputs": [],
      "name": "Owner",
      "outputs": [
        {
          "internalType": "address",
          "name": "",
          "type": "address"
        }
      ],
      "payable": false,
      "stateMutability": "view",
      "type": "function"
    },
    {
      "constant": true,
      "inputs": [
        {
          "internalType": "uint256",
          "name": "",
          "type": "uint256"
        }
      ],
      "name": "Pharmacies",
      "outputs": [
        {
          "internalType": "address",
          "name": "addr",
          "type": "address"
        },
        {
          "internalType": "uint256",
          "name": "id",
          "type": "uint256"
        },
        {
          "internalType": "string",
          "name": "name",
          "type": "string"
        },
        {
          "internalType": "string",
          "name": "place",
          "type": "string"
        }
      ],
      "payable": false,
      "stateMutability": "view",
      "type": "function"
    },
    {
      "constant": true,
      "inputs": [
        {
          "internalType": "uint256",
          "name": "",
          "type": "uint256"
        }
      ],
      "name": "Suppliers",
      "outputs": [
        {
          "internalType": "address",
          "name": "addr",
          "type": "address"
        },
        {
          "internalType": "uint256",
          "name": "id",
          "type": "uint256"
        },
        {
          "internalType": "string",
          "name": "name",
          "type": "string"
        },
        {
          "internalType": "string",
          "name": "place",
          "type": "string"
        }
      ],
      "payable": false,
      "stateMutability": "view",
      "type": "function"
    },
    {
      "constant": true,
      "inputs": [
        {
          "internalType": "uint256",
          "name": "",
          "type": "uint256"
        }
      ],
      "name": "Wholesalers",
      "outputs": [
        {
          "internalType": "address",
          "name": "addr",
          "type": "address"
        },
        {
          "internalType": "uint256",
          "name": "id",
          "type": "uint256"
        },
        {
          "internalType": "string",
          "name": "name",
          "type": "string"
        },
        {
          "internalType": "string",
          "name": "place",
          "type": "string"
        }
      ],
      "payable": false,
      "stateMutability": "view",
      "type": "function"
    },
    {
      "constant": true,
      "inputs": [],
      "name": "batchCtr",
      "outputs": [
        {
          "internalType": "uint256",
          "name": "",
          "type": "uint256"
        }
      ],
      "payable": false,
      "stateMutability": "view",
      "type": "function"
    },
    {
      "constant": true,
      "inputs": [],
      "name": "labCtr",
      "outputs": [
        {
          "internalType": "uint256",
          "name": "",
          "type": "uint256"
        }
      ],
      "payable": false,
      "stateMutability": "view",
      "type": "function"
    },
    {
      "constant": true,
      "inputs": [],
      "name": "pharmacyCtr",
      "outputs": [
        {
          "internalType": "uint256",
          "name": "",
          "type": "uint256"
        }
      ],
      "payable": false,
      "stateMutability": "view",
      "type": "function"
    },
    {
      "constant": true,
      "inputs": [],
      "name": "supplierCtr",
      "outputs": [
        {
          "internalType": "uint256",
          "name": "",
          "type": "uint256"
        }
      ],
      "payable": false,
      "stateMutability": "view",
      "type": "function"
    },
    {
      "constant": true,
      "inputs": [],
      "name": "wholesalerCtr",
      "outputs": [
        {
          "internalType": "uint256",
          "name": "",
          "type": "uint256"
        }
      ],
      "payable": false,
      "stateMutability": "view",
      "type": "function"
    },
    {
      "constant": true,
      "inputs": [
        {
          "internalType": "uint256",
          "name": "_batchID",
          "type": "uint256"
        }
      ],
      "name": "getBatchStatus",
      "outputs": [
        {
          "internalType": "string",
          "name": "",
          "type": "string"
        }
      ],
      "payable": false,
      "stateMutability": "view",
      "type": "function"
    },
    {
      "constant": false,
      "inputs": [
        {
          "internalType": "address",
          "name": "_address",
          "type": "address"
        },
        {
          "internalType": "string",
          "name": "_name",
          "type": "string"
        },
        {
          "internalType": "string",
          "name": "_place",
          "type": "string"
        }
      ],
      "name": "addIngredientSupplier",
      "outputs": [],
      "payable": false,
      "stateMutability": "nonpayable",
      "type": "function"
    },
    {
      "constant": false,
      "inputs": [
        {
          "internalType": "address",
          "name": "_address",
          "type": "address"
        },
        {
          "internalType": "string",
          "name": "_name",
          "type": "string"
        },
        {
          "internalType": "string",
          "name": "_place",
          "type": "string"
        }
      ],
      "name": "addPharmaceuticalLab",
      "outputs": [],
      "payable": false,
      "stateMutability": "nonpayable",
      "type": "function"
    },
    {
      "constant": false,
      "inputs": [
        {
          "internalType": "address",
          "name": "_address",
          "type": "address"
        },
        {
          "internalType": "string",
          "name": "_name",
          "type": "string"
        },
        {
          "internalType": "string",
          "name": "_place",
          "type": "string"
        }
      ],
      "name": "addWholesaler",
      "outputs": [],
      "payable": false,
      "stateMutability": "nonpayable",
      "type": "function"
    },
    {
      "constant": false,
      "inputs": [
        {
          "internalType": "address",
          "name": "_address",
          "type": "address"
        },
        {
          "internalType": "string",
          "name": "_name",
          "type": "string"
        },
        {
          "internalType": "string",
          "name": "_place",
          "type": "string"
        }
      ],
      "name": "addPharmacy",
      "outputs": [],
      "payable": false,
      "stateMutability": "nonpayable",
      "type": "function"
    },
    {
      "constant": false,
      "inputs": [
        {
          "internalType": "uint256",
          "name": "_batchID",
          "type": "uint256"
        }
      ],
      "name": "sourceIngredients",
      "outputs": [],
      "payable": false,
      "stateMutability": "nonpayable",
      "type": "function"
    },
    {
      "constant": false,
      "inputs": [
        {
          "internalType": "uint256",
          "name": "_batchID",
          "type": "uint256"
        }
      ],
      "name": "produceBatch",
      "outputs": [],
      "payable": false,
      "stateMutability": "nonpayable",
      "type": "function"
    },
    {
      "constant": false,
      "inputs": [
        {
          "internalType": "uint256",
          "name": "_batchID",
          "type": "uint256"
        }
      ],
      "name": "shipToWholesaler",
      "outputs": [],
      "payable": false,
      "stateMutability": "nonpayable",
      "type": "function"
    },
    {
      "constant": false,
      "inputs": [
        {
          "internalType": "uint256",
          "name": "_batchID",
          "type": "uint256"
        }
      ],
      "name": "shipToPharmacy",
      "outputs": [],
      "payable": false,
      "stateMutability": "nonpayable",
      "type": "function"
    },
    {
      "constant": false,
      "inputs": [
        {
          "internalType": "uint256",
          "name": "_batchID",
          "type": "uint256"
        }
      ],
      "name": "dispenseToPatient",
      "outputs": [],
      "payable": false,
      "stateMutability": "nonpayable",
      "type": "function"
    },
    {
      "constant": false,
      "inputs": [
        {
          "internalType": "string",
          "name": "_drugName",
          "type": "string"
        },
        {
          "internalType": "string",
          "name": "_batchDescription",
          "type": "string"
        }
      ],
      "name": "createDrugBatch",
      "outputs": [],
      "payable": false,
      "stateMutability": "nonpayable",
      "type": "function"
    }
  ],
  "bytecode": "0x60806040526000600155600060025560006003556000600455600060055534801561002957600080fd5b50336000806101000a81548173ffffffffffffffffffffffffffffffffffffffff021916908373ffffffffffffffffffffffffffffffffffffffff160217905550612af5806100796000396000f3fe608060405234801561001057600080fd5b50600436106101425760003560e01c8063883c4cd9116100b8578063bd5327621161007c578063bd53276214610e16578063c7650eab14610f68578063c856363214610f96578063f07b162614610fc4578063f459721c14610fe2578063ff8a17511461112f57610142565b8063883c4cd914610ac35780638ceb8b5c14610ae157806391db74a514610c2c578063b4a99a4e14610c5a578063b9835aa314610ca457610142565b80634dba48251161010a5780634dba4825146104d4578063599d68cb146106465780637ca5a90c146107b85780637e782e691461092a5780637fc219801461095857806387c0aa5614610aa557610142565b80630830d48f1461014757806323c55dfa1461017557806324b2dff114610193578063250d3801146102e05780632d1bbc8e1461042d575b600080fd5b6101736004803603602081101561015d57600080fd5b810190808035906020019092919050505061114d565b005b61017d611226565b6040518082815260200191505060405180910390f35b6101bf600480360360208110156101a957600080fd5b810190808035906020019092919050505061122c565b604051808573ffffffffffffffffffffffffffffffffffffffff1673ffffffffffffffffffffffffffffffffffffffff1681526020018481526020018060200180602001838103835285818151815260200191508051906020019080838360005b8381101561023b578082015181840152602081019050610220565b50505050905090810190601f1680156102685780820380516001836020036101000a031916815260200191505b50838103825284818151815260200191508051906020019080838360005b838110156102a1578082015181840152602081019050610286565b50505050905090810190601f1680156102ce5780820380516001836020036101000a031916815260200191505b50965050505050505060405180910390f35b61030c600480360360208110156102f657600080fd5b81019080803590602001909291905050506113ac565b604051808573ffffffffffffffffffffffffffffffffffffffff1673ffffffffffffffffffffffffffffffffffffffff1681526020018481526020018060200180602001838103835285818151815260200191508051906020019080838360005b8381101561038857808201518184015260208101905061036d565b50505050905090810190601f1680156103b55780820380516001836020036101000a031916815260200191505b50838103825284818151815260200191508051906020019080838360005b838110156103ee5780820151818401526020810190506103d3565b50505050905090810190601f16801561041b5780820380516001836020036101000a031916815260200191505b50965050505050505060405180910390f35b6104596004803603602081101561044357600080fd5b810190808035906020019092919050505061152c565b6040518080602001828103825283818151815260200191508051906020019080838360005b8381101561049957808201518184015260208101905061047e565b50505050905090810190601f1680156104c65780820380516001836020036101000a031916815260200191505b509250505060405180910390f35b610644600480360360608110156104ea57600080fd5b81019080803573ffffffffffffffffffffffffffffffffffffffff1690602001909291908035906020019064010000000081111561052757600080fd5b82018360208201111561053957600080fd5b8035906020019184600183028401116401000000008311171561055b57600080fd5b91908080601f016020809104026020016040519081016040528093929190818152602001838380828437600081840152601f19601f820116905080830192505050505050509192919290803590602001906401000000008111156105be57600080fd5b8201836020820111156105d057600080fd5b803590602001918460018302840111640100000000831117156105f257600080fd5b91908080601f016020809104026020016040519081016040528093929190818152602001838380828437600081840152601f19601f82011690508083019250505050505050919291929050505061183c565b005b6107b66004803603606081101561065c57600080fd5b81019080803573ffffffffffffffffffffffffffffffffffffffff1690602001909291908035906020019064010000000081111561069957600080fd5b8201836020820111156106ab57600080fd5b803590602001918460018302840111640100000000831117156106cd57600080fd5b91908080601f016020809104026020016040519081016040528093929190818152602001838380828437600081840152601f19601f8201169050808301925050505050505091929192908035906020019064010000000081111561073057600080fd5b82018360208201111561074257600080fd5b8035906020019184600183028401116401000000008311171561076457600080fd5b91908080601f016020809104026020016040519081016040528093929190818152602001838380828437600081840152601f19601f820116905080830192505050505050509192919290505050611988565b005b610928600480360360608110156107ce57600080fd5b81019080803573ffffffffffffffffffffffffffffffffffffffff1690602001909291908035906020019064010000000081111561080b57600080fd5b82018360208201111561081d57600080fd5b8035906020019184600183028401116401000000008311171561083f57600080fd5b91908080601f016020809104026020016040519081016040528093929190818152602001838380828437600081840152601f19601f820116905080830192505050505050509192919290803590602001906401000000008111156108a257600080fd5b8201836020820111156108b457600080fd5b803590602001918460018302840111640100000000831117156108d657600080fd5b91908080601f016020809104026020016040519081016040528093929190818152602001838380828437600081840152601f19601f820116905080830192505050505050509192919290505050611ad4565b005b6109566004803603602081101561094057600080fd5b8101908080359060200190929190505050611c20565b005b6109846004803603602081101561096e57600080fd5b8101908080359060200190929190505050611cf2565b604051808573ffffffffffffffffffffffffffffffffffffffff1673ffffffffffffffffffffffffffffffffffffffff1681526020018481526020018060200180602001838103835285818151815260200191508051906020019080838360005b83811015610a005780820151818401526020810190506109e5565b50505050905090810190601f168015610a2d5780820380516001836020036101000a031916815260200191505b50838103825284818151815260200191508051906020019080838360005b83811015610a66578082015181840152602081019050610a4b565b50505050905090810190601f168015610a935780820380516001836020036101000a031916815260200191505b50965050505050505060405180910390f35b610aad611e72565b6040518082815260200191505060405180910390f35b610acb611e78565b6040518082815260200191505060405180910390f35b610b0d60048036036020811015610af757600080fd5b8101908080359060200190929190505050611e7e565b604051808981526020018060200180602001888152602001878152602001868152602001858152602001846005811115610b4357fe5b60ff16815260200183810383528a818151815260200191508051906020019080838360005b83811015610b83578082015181840152602081019050610b68565b50505050905090810190601f168015610bb05780820380516001836020036101000a031916815260200191505b50838103825289818151815260200191508051906020019080838360005b83811015610be9578082015181840152602081019050610bce565b50505050905090810190601f168015610c165780820380516001836020036101000a031916815260200191505b509a505050505050505050505060405180910390f35b610c5860048036036020811015610c4257600080fd5b8101908080359060200190929190505050612003565b005b610c626120d5565b604051808273ffffffffffffffffffffffffffffffffffffffff1673ffffffffffffffffffffffffffffffffffffffff16815260200191505060405180910390f35b610e1460048036036060811015610cba57600080fd5b81019080803573ffffffffffffffffffffffffffffffffffffffff16906020019092919080359060200190640100000000811115610cf757600080fd5b820183602082011115610d0957600080fd5b80359060200191846001830284011164010000000083111715610d2b57600080fd5b91908080601f016020809104026020016040519081016040528093929190818152602001838380828437600081840152601f19601f82011690508083019250505050505050919291929080359060200190640100000000811115610d8e57600080fd5b820183602082011115610da057600080fd5b80359060200191846001830284011164010000000083111715610dc257600080fd5b91908080601f016020809104026020016040519081016040528093929190818152602001838380828437600081840152601f19601f8201169050808301925050505050505091929192905050506120fa565b005b610f6660048036036040811015610e2c57600080fd5b8101908080359060200190640100000000811115610e4957600080fd5b820183602082011115610e5b57600080fd5b80359060200191846001830284011164010000000083111715610e7d57600080fd5b91908080601f016020809104026020016040519081016040528093929190818152602001838380828437600081840152601f19601f82011690508083019250505050505050919291929080359060200190640100000000811115610ee057600080fd5b820183602082011115610ef257600080fd5b80359060200191846001830284011164010000000083111715610f1457600080fd5b91908080601f016020809104026020016040519081016040528093929190818152602001838380828437600081840152601f19601f820116905080830192505050505050509192919290505050612246565b005b610f9460048036036020811015610f7e57600080fd5b81019080803590602001909291905050506123e7565b005b610fc260048036036020811015610fac57600080fd5b81019080803590602001909291905050506124b9565b005b610fcc61258b565b6040518082815260200191505060405180910390f35b61100e60048036036020811015610ff857600080fd5b8101908080359060200190929190505050612591565b604051808573ffffffffffffffffffffffffffffffffffffffff1673ffffffffffffffffffffffffffffffffffffffff1681526020018481526020018060200180602001838103835285818151815260200191508051906020019080838360005b8381101561108a57808201518184015260208101905061106f565b50505050905090810190601f1680156110b75780820380516001836020036101000a031916815260200191505b50838103825284818151815260200191508051906020019080838360005b838110156110f05780820151818401526020810190506110d5565b50505050905090810190601f16801561111d5780820380516001836020036101000a031916815260200191505b50965050505050505060405180910390f35b611137612711565b6040518082815260200191505060405180910390f35b60008111801561115f57506001548111155b61116857600080fd5b600061117333612717565b90506000811161118257600080fd5b600660008381526020019081526020016000206006015481146111a457600080fd5b600460058111156111b157fe5b6006600084815260200190815260200160002060070160009054906101000a900460ff1660058111156111e057fe5b146111ea57600080fd5b60056006600084815260200190815260200160002060070160006101000a81548160ff0219169083600581111561121d57fe5b02179055505050565b60015481565b60076020528060005260406000206000915090508060000160009054906101000a900473ffffffffffffffffffffffffffffffffffffffff1690806001015490806002018054600181600116156101000203166002900480601f0160208091040260200160405190810160405280929190818152602001828054600181600116156101000203166002900480156113045780601f106112d957610100808354040283529160200191611304565b820191906000526020600020905b8154815290600101906020018083116112e757829003601f168201915b505050505090806003018054600181600116156101000203166002900480601f0160208091040260200160405190810160405280929190818152602001828054600181600116156101000203166002900480156113a25780601f10611377576101008083540402835291602001916113a2565b820191906000526020600020905b81548152906001019060200180831161138557829003601f168201915b5050505050905084565b60096020528060005260406000206000915090508060000160009054906101000a900473ffffffffffffffffffffffffffffffffffffffff1690806001015490806002018054600181600116156101000203166002900480601f0160208091040260200160405190810160405280929190818152602001828054600181600116156101000203166002900480156114845780601f1061145957610100808354040283529160200191611484565b820191906000526020600020905b81548152906001019060200180831161146757829003601f168201915b505050505090806003018054600181600116156101000203166002900480601f0160208091040260200160405190810160405280929190818152602001828054600181600116156101000203166002900480156115225780601f106114f757610100808354040283529160200191611522565b820191906000526020600020905b81548152906001019060200180831161150557829003601f168201915b5050505050905084565b606060006001541161153d57600080fd5b6000600581111561154a57fe5b6006600084815260200190815260200160002060070160009054906101000a900460ff16600581111561157957fe5b14156115bc576040518060400160405280601381526020017f4261746368204f726465722050656e64696e67000000000000000000000000008152509050611837565b600160058111156115c957fe5b6006600084815260200190815260200160002060070160009054906101000a900460ff1660058111156115f857fe5b141561163b576040518060400160405280601981526020017f496e6772656469656e747320536f7572636564205374616765000000000000008152509050611837565b6002600581111561164857fe5b6006600084815260200190815260200160002060070160009054906101000a900460ff16600581111561167757fe5b14156116ba576040518060400160405280601081526020017f50726f64756374696f6e205374616765000000000000000000000000000000008152509050611837565b600360058111156116c757fe5b6006600084815260200190815260200160002060070160009054906101000a900460ff1660058111156116f657fe5b1415611739576040518060400160405280601f81526020017f446973747269627574696f6e2053746167652028496e205472616e73697429008152509050611837565b6004600581111561174657fe5b6006600084815260200190815260200160002060070160009054906101000a900460ff16600581111561177557fe5b14156117b8576040518060400160405280601381526020017f53746f636b656420617420506861726d616379000000000000000000000000008152509050611837565b6005808111156117c457fe5b6006600084815260200190815260200160002060070160009054906101000a900460ff1660058111156117f357fe5b1415611836576040518060400160405280601481526020017f44697370656e73656420746f2050617469656e740000000000000000000000008152509050611837565b5b919050565b6000809054906101000a900473ffffffffffffffffffffffffffffffffffffffff1673ffffffffffffffffffffffffffffffffffffffff163373ffffffffffffffffffffffffffffffffffffffff161461189557600080fd5b60026000815480929190600101919050555060405180608001604052808473ffffffffffffffffffffffffffffffffffffffff16815260200160025481526020018381526020018281525060076000600254815260200190815260200160002060008201518160000160006101000a81548173ffffffffffffffffffffffffffffffffffffffff021916908373ffffffffffffffffffffffffffffffffffffffff160217905550602082015181600101556040820151816002019080519060200190611962929190612a1b565b50606082015181600301908051906020019061197f929190612a1b565b50905050505050565b6000809054906101000a900473ffffffffffffffffffffffffffffffffffffffff1673ffffffffffffffffffffffffffffffffffffffff163373ffffffffffffffffffffffffffffffffffffffff16146119e157600080fd5b60056000815480929190600101919050555060405180608001604052808473ffffffffffffffffffffffffffffffffffffffff168152602001600554815260200183815260200182815250600a6000600554815260200190815260200160002060008201518160000160006101000a81548173ffffffffffffffffffffffffffffffffffffffff021916908373ffffffffffffffffffffffffffffffffffffffff160217905550602082015181600101556040820151816002019080519060200190611aae929190612a1b565b506060820151816003019080519060200190611acb929190612a1b565b50905050505050565b6000809054906101000a900473ffffffffffffffffffffffffffffffffffffffff1673ffffffffffffffffffffffffffffffffffffffff163373ffffffffffffffffffffffffffffffffffffffff1614611b2d57600080fd5b60036000815480929190600101919050555060405180608001604052808473ffffffffffffffffffffffffffffffffffffffff16815260200160035481526020018381526020018281525060086000600354815260200190815260200160002060008201518160000160006101000a81548173ffffffffffffffffffffffffffffffffffffffff021916908373ffffffffffffffffffffffffffffffffffffffff160217905550602082015181600101556040820151816002019080519060200190611bfa929190612a1b565b506060820151816003019080519060200190611c17929190612a1b565b50905050505050565b600081118015611c3257506001548111155b611c3b57600080fd5b6000611c4633612717565b905060008111611c5557600080fd5b60036005811115611c6257fe5b6006600084815260200190815260200160002060070160009054906101000a900460ff166005811115611c9157fe5b14611c9b57600080fd5b80600660008481526020019081526020016000206006018190555060046006600084815260200190815260200160002060070160006101000a81548160ff02191690836005811115611ce957fe5b02179055505050565b60086020528060005260406000206000915090508060000160009054906101000a900473ffffffffffffffffffffffffffffffffffffffff1690806001015490806002018054600181600116156101000203166002900480601f016020809104026020016040519081016040528092919081815260200182805460018160011615610100020316600290048015611dca5780601f10611d9f57610100808354040283529160200191611dca565b820191906000526020600020905b815481529060010190602001808311611dad57829003601f168201915b505050505090806003018054600181600116156101000203166002900480601f016020809104026020016040519081016040528092919081815260200182805460018160011615610100020316600290048015611e685780601f10611e3d57610100808354040283529160200191611e68565b820191906000526020600020905b815481529060010190602001808311611e4b57829003601f168201915b5050505050905084565b60045481565b60055481565b6006602052806000526040600020600091509050806000015490806001018054600181600116156101000203166002900480601f016020809104026020016040519081016040528092919081815260200182805460018160011615610100020316600290048015611f305780601f10611f0557610100808354040283529160200191611f30565b820191906000526020600020905b815481529060010190602001808311611f1357829003601f168201915b505050505090806002018054600181600116156101000203166002900480601f016020809104026020016040519081016040528092919081815260200182805460018160011615610100020316600290048015611fce5780601f10611fa357610100808354040283529160200191611fce565b820191906000526020600020905b815481529060010190602001808311611fb157829003601f168201915b5050505050908060030154908060040154908060050154908060060154908060070160009054906101000a900460ff16905088565b60008111801561201557506001548111155b61201e57600080fd5b6000612029336127d8565b90506000811161203857600080fd5b6000600581111561204557fe5b6006600084815260200190815260200160002060070160009054906101000a900460ff16600581111561207457fe5b1461207e57600080fd5b80600660008481526020019081526020016000206003018190555060016006600084815260200190815260200160002060070160006101000a81548160ff021916908360058111156120cc57fe5b02179055505050565b6000809054906101000a900473ffffffffffffffffffffffffffffffffffffffff1681565b6000809054906101000a900473ffffffffffffffffffffffffffffffffffffffff1673ffffffffffffffffffffffffffffffffffffffff163373ffffffffffffffffffffffffffffffffffffffff161461215357600080fd5b60046000815480929190600101919050555060405180608001604052808473ffffffffffffffffffffffffffffffffffffffff16815260200160045481526020018381526020018281525060096000600454815260200190815260200160002060008201518160000160006101000a81548173ffffffffffffffffffffffffffffffffffffffff021916908373ffffffffffffffffffffffffffffffffffffffff160217905550602082015181600101556040820151816002019080519060200190612220929190612a1b565b50606082015181600301908051906020019061223d929190612a1b565b50905050505050565b6000809054906101000a900473ffffffffffffffffffffffffffffffffffffffff1673ffffffffffffffffffffffffffffffffffffffff163373ffffffffffffffffffffffffffffffffffffffff161461229f57600080fd5b60006002541180156122b357506000600354115b80156122c157506000600454115b80156122cf57506000600554115b6122d857600080fd5b6001600081548092919060010191905055506040518061010001604052806001548152602001838152602001828152602001600081526020016000815260200160008152602001600081526020016000600581111561233357fe5b815250600660006001548152602001908152602001600020600082015181600001556020820151816001019080519060200190612371929190612a1b565b50604082015181600201908051906020019061238e929190612a1b565b50606082015181600301556080820151816004015560a0820151816005015560c0820151816006015560e08201518160070160006101000a81548160ff021916908360058111156123db57fe5b02179055509050505050565b6000811180156123f957506001548111155b61240257600080fd5b600061240d33612899565b90506000811161241c57600080fd5b6002600581111561242957fe5b6006600084815260200190815260200160002060070160009054906101000a900460ff16600581111561245857fe5b1461246257600080fd5b80600660008481526020019081526020016000206005018190555060036006600084815260200190815260200160002060070160006101000a81548160ff021916908360058111156124b057fe5b02179055505050565b6000811180156124cb57506001548111155b6124d457600080fd5b60006124df3361295a565b9050600081116124ee57600080fd5b600160058111156124fb57fe5b6006600084815260200190815260200160002060070160009054906101000a900460ff16600581111561252a57fe5b1461253457600080fd5b80600660008481526020019081526020016000206004018190555060026006600084815260200190815260200160002060070160006101000a81548160ff0219169083600581111561258257fe5b02179055505050565b60025481565b600a6020528060005260406000206000915090508060000160009054906101000a900473ffffffffffffffffffffffffffffffffffffffff1690806001015490806002018054600181600116156101000203166002900480601f0160208091040260200160405190810160405280929190818152602001828054600181600116156101000203166002900480156126695780601f1061263e57610100808354040283529160200191612669565b820191906000526020600020905b81548152906001019060200180831161264c57829003601f168201915b505050505090806003018054600181600116156101000203166002900480601f0160208091040260200160405190810160405280929190818152602001828054600181600116156101000203166002900480156127075780601f106126dc57610100808354040283529160200191612707565b820191906000526020600020905b8154815290600101906020018083116126ea57829003601f168201915b5050505050905084565b60035481565b6000806005541161272757600080fd5b6000600190505b60055481116127cd578273ffffffffffffffffffffffffffffffffffffffff16600a600083815260200190815260200160002060000160009054906101000a900473ffffffffffffffffffffffffffffffffffffffff1673ffffffffffffffffffffffffffffffffffffffff1614156127c057600a6000828152602001908152602001600020600101549150506127d3565b808060010191505061272e565b50600090505b919050565b600080600254116127e857600080fd5b6000600190505b600254811161288e578273ffffffffffffffffffffffffffffffffffffffff166007600083815260200190815260200160002060000160009054906101000a900473ffffffffffffffffffffffffffffffffffffffff1673ffffffffffffffffffffffffffffffffffffffff161415612881576007600082815260200190815260200160002060010154915050612894565b80806001019150506127ef565b50600090505b919050565b600080600454116128a957600080fd5b6000600190505b600454811161294f578273ffffffffffffffffffffffffffffffffffffffff166009600083815260200190815260200160002060000160009054906101000a900473ffffffffffffffffffffffffffffffffffffffff1673ffffffffffffffffffffffffffffffffffffffff161415612942576009600082815260200190815260200160002060010154915050612955565b80806001019150506128b0565b50600090505b919050565b6000806003541161296a57600080fd5b6000600190505b6003548111612a10578273ffffffffffffffffffffffffffffffffffffffff166008600083815260200190815260200160002060000160009054906101000a900473ffffffffffffffffffffffffffffffffffffffff1673ffffffffffffffffffffffffffffffffffffffff161415612a03576008600082815260200190815260200160002060010154915050612a16565b8080600101915050612971565b50600090505b919050565b828054600181600116156101000203166002900490600052602060002090601f016020900481019282601f10612a5c57805160ff1916838001178555612a8a565b82800160010185558215612a8a579182015b82811115612a89578251825591602001919060010190612a6e565b5b509050612a979190612a9b565b5090565b612abd91905b80821115612ab9576000816000905550600101612aa1565b5090565b9056fea265627a7a72315820099dd437b6e7baa6b908d6bb30851414642c8f8ee8983af956be40b60b93c04f64736f6c63430005100032",
  "source": "// SPDX-License-Identifier: MIT\r\npragma solidity >=0.4.22 <0.9.0;\r\n\r\ncontract PharmaTrace {\r\n    // Smart Contract owner will be the person who deploys the contract\r\n    // only he can authorize various roles.\r\n    address public Owner;\r\n\r\n    // This constructor is called when the smart contract is deployed.\r\n    constructor() public {\r\n        Owner = msg.sender;\r\n    }\r\n\r\n    // Roles (flow of pharma supply chain)\r\n    // IngredientSupplier;\r\n    // This is where Labs get raw materials to make medicines\r\n    // PharmaceuticalLab;\r\n    // Various WHO guidelines should be followed by this entity\r\n    // Wholesaler;\r\n    // This entity distributes the drug batches to pharmacies\r\n    // Pharmacy;\r\n    // Normal customer buys from the pharmacy\r\n\r\n    // Modifier to make sure only the owner is using the function\r\n    modifier onlyByOwner() {\r\n        require(msg.sender == Owner);\r\n        _;\r\n    }\r\n\r\n    // Stages of a drug batch in the pharma supply chain\r\n    enum BatchStatus {\r\n        Pending,\r\n        IngredientsSourced,\r\n        Production,\r\n        InTransit,\r\n        AtPharmacy,\r\n        Dispensed\r\n    }\r\n    // We use this to track every single drug batch\r\n\r\n    // Drug Batch count\r\n    uint256 public batchCtr = 0;\r\n    // Ingredient Supplier count\r\n    uint256 public supplierCtr = 0;\r\n    // Pharmaceutical Lab count\r\n    uint256 public labCtr = 0;\r\n    // Wholesaler count\r\n    uint256 public wholesalerCtr = 0;\r\n    // Pharmacy count\r\n    uint256 public pharmacyCtr = 0;\r\n\r\n    // To store information about the drug batch\r\n    struct DrugBatch {\r\n        uint256 batchId; // unique batch id\r\n        string drugName; // name of the drug\r\n        string batchDescription; // about this batch\r\n        uint256 supplierId; // id of the Ingredient Supplier for this batch\r\n        uint256 labId; // id of the Lab for this batch\r\n        uint256 wholesalerId; // id of the Wholesaler for this batch\r\n        uint256 pharmacyId; // id of the Pharmacy for this batch\r\n        BatchStatus status; // current batch status\r\n    }\r\n\r\n    // To store all the drug batches on the blockchain\r\n    mapping(uint256 => DrugBatch) public DrugBatches;\r\n\r\n    // To show status to client applications\r\n    function getBatchStatus(\r\n        uint256 _batchID\r\n    ) public view returns (string memory) {\r\n        require(batchCtr > 0);\r\n        if (DrugBatches[_batchID].status == BatchStatus.Pending)\r\n            return \"Batch Order Pending\";\r\n        else if (DrugBatches[_batchID].status == BatchStatus.IngredientsSourced)\r\n            return \"Ingredients Sourced Stage\";\r\n        else if (DrugBatches[_batchID].status == BatchStatus.Production)\r\n            return \"Production Stage\";\r\n        else if (DrugBatches[_batchID].status == BatchStatus.InTransit)\r\n            return \"Distribution Stage (In Transit)\";\r\n        else if (DrugBatches[_batchID].status == BatchStatus.AtPharmacy)\r\n            return \"Stocked at Pharmacy\";\r\n        else if (DrugBatches[_batchID].status == BatchStatus.Dispensed)\r\n            return \"Dispensed to Patient\";\r\n    }\r\n\r\n    // To store information about ingredient supplier\r\n    struct IngredientSupplier {\r\n        address addr;\r\n        uint256 id; // supplier id\r\n        string name; // Name of the ingredient supplier\r\n        string place; // Place the supplier is based in\r\n    }\r\n\r\n    // To store all the ingredient suppliers on the blockchain\r\n    mapping(uint256 => IngredientSupplier) public Suppliers;\r\n\r\n    // To store information about pharmaceutical lab\r\n    struct PharmaceuticalLab {\r\n        address addr;\r\n        uint256 id; // lab id\r\n        string name; // Name of the lab\r\n        string place; // Place the lab is based in\r\n    }\r\n\r\n    // To store all the labs on the blockchain\r\n    mapping(uint256 => PharmaceuticalLab) public Labs;\r\n\r\n    // To store information about wholesaler\r\n    struct Wholesaler {\r\n        address addr;\r\n        uint256 id; // wholesaler id\r\n        string name; // Name of the wholesaler\r\n        string place; // Place the wholesaler is based in\r\n    }\r\n\r\n    // To store all the wholesalers on the blockchain\r\n    mapping(uint256 => Wholesaler) public Wholesalers;\r\n\r\n    // To store information about pharmacy\r\n    struct Pharmacy {\r\n        address addr;\r\n        uint256 id; // pharmacy id\r\n        string name; // Name of the pharmacy\r\n        string place; // Place the pharmacy is based in\r\n    }\r\n\r\n    // To store all the pharmacies on the blockchain\r\n    mapping(uint256 => Pharmacy) public Pharmacies;\r\n\r\n    // To add ingredient suppliers. Only contract owner can add a new one.\r\n    function addIngredientSupplier(\r\n        address _address,\r\n        string memory _name,\r\n        string memory _place\r\n    ) public onlyByOwner {\r\n        supplierCtr++;\r\n        Suppliers[supplierCtr] = IngredientSupplier(_address, supplierCtr, _name, _place);\r\n    }\r\n\r\n    // To add a pharmaceutical lab. Only contract owner can add a new one.\r\n    function addPharmaceuticalLab(\r\n        address _address,\r\n        string memory _name,\r\n        string memory _place\r\n    ) public onlyByOwner {\r\n        labCtr++;\r\n        Labs[labCtr] = PharmaceuticalLab(_address, labCtr, _name, _place);\r\n    }\r\n\r\n    // To add a wholesaler. Only contract owner can add a new one.\r\n    function addWholesaler(\r\n        address _address,\r\n        string memory _name,\r\n        string memory _place\r\n    ) public onlyByOwner {\r\n        wholesalerCtr++;\r\n        Wholesalers[wholesalerCtr] = Wholesaler(_address, wholesalerCtr, _name, _place);\r\n    }\r\n\r\n    // To add a pharmacy. Only contract owner can add a new one.\r\n    function addPharmacy(\r\n        address _address,\r\n        string memory _name,\r\n        string memory _place\r\n    ) public onlyByOwner {\r\n        pharmacyCtr++;\r\n        Pharmacies[pharmacyCtr] = Pharmacy(_address, pharmacyCtr, _name, _place);\r\n    }\r\n\r\n    // To supply ingredients from supplier to the lab\r\n    function sourceIngredients(uint256 _batchID) public {\r\n        require(_batchID > 0 && _batchID <= batchCtr);\r\n        uint256 _id = findSupplier(msg.sender);\r\n        require(_id > 0);\r\n        require(DrugBatches[_batchID].status == BatchStatus.Pending);\r\n        DrugBatches[_batchID].supplierId = _id;\r\n        DrugBatches[_batchID].status = BatchStatus.IngredientsSourced;\r\n    }\r\n\r\n    // To check if Supplier is available in the blockchain\r\n    function findSupplier(address _address) private view returns (uint256) {\r\n        require(supplierCtr > 0);\r\n        for (uint256 i = 1; i <= supplierCtr; i++) {\r\n            if (Suppliers[i].addr == _address) return Suppliers[i].id;\r\n        }\r\n        return 0;\r\n    }\r\n\r\n    // To produce the drug batch\r\n    function produceBatch(uint256 _batchID) public {\r\n        require(_batchID > 0 && _batchID <= batchCtr);\r\n        uint256 _id = findLab(msg.sender);\r\n        require(_id > 0);\r\n        require(DrugBatches[_batchID].status == BatchStatus.IngredientsSourced);\r\n        DrugBatches[_batchID].labId = _id;\r\n        DrugBatches[_batchID].status = BatchStatus.Production;\r\n    }\r\n\r\n    // To check if Lab is available in the blockchain\r\n    function findLab(address _address) private view returns (uint256) {\r\n        require(labCtr > 0);\r\n        for (uint256 i = 1; i <= labCtr; i++) {\r\n            if (Labs[i].addr == _address) return Labs[i].id;\r\n        }\r\n        return 0;\r\n    }\r\n\r\n    // To ship batches from Lab to Wholesaler\r\n    function shipToWholesaler(uint256 _batchID) public {\r\n        require(_batchID > 0 && _batchID <= batchCtr);\r\n        uint256 _id = findWholesaler(msg.sender);\r\n        require(_id > 0);\r\n        require(DrugBatches[_batchID].status == BatchStatus.Production);\r\n        DrugBatches[_batchID].wholesalerId = _id;\r\n        DrugBatches[_batchID].status = BatchStatus.InTransit;\r\n    }\r\n\r\n    // To check if Wholesaler is available in the blockchain\r\n    function findWholesaler(address _address) private view returns (uint256) {\r\n        require(wholesalerCtr > 0);\r\n        for (uint256 i = 1; i <= wholesalerCtr; i++) {\r\n            if (Wholesalers[i].addr == _address) return Wholesalers[i].id;\r\n        }\r\n        return 0;\r\n    }\r\n\r\n    // To ship batches from Wholesaler to Pharmacy\r\n    function shipToPharmacy(uint256 _batchID) public {\r\n        require(_batchID > 0 && _batchID <= batchCtr);\r\n        uint256 _id = findPharmacy(msg.sender);\r\n        require(_id > 0);\r\n        require(DrugBatches[_batchID].status == BatchStatus.InTransit);\r\n        DrugBatches[_batchID].pharmacyId = _id;\r\n        DrugBatches[_batchID].status = BatchStatus.AtPharmacy;\r\n    }\r\n\r\n    // To check if Pharmacy is available in the blockchain\r\n    function findPharmacy(address _address) private view returns (uint256) {\r\n        require(pharmacyCtr > 0);\r\n        for (uint256 i = 1; i <= pharmacyCtr; i++) {\r\n            if (Pharmacies[i].addr == _address) return Pharmacies[i].id;\r\n        }\r\n        return 0;\r\n    }\r\n\r\n    // To sell medicines from pharmacy to consumer\r\n    function dispenseToPatient(uint256 _batchID) public {\r\n        require(_batchID > 0 && _batchID <= batchCtr);\r\n        uint256 _id = findPharmacy(msg.sender);\r\n        require(_id > 0);\r\n        require(_id == DrugBatches[_batchID].pharmacyId); // Only the correct pharmacy can mark as dispensed\r\n        require(DrugBatches[_batchID].status == BatchStatus.AtPharmacy);\r\n        DrugBatches[_batchID].status = BatchStatus.Dispensed;\r\n    }\r\n\r\n    // To add new drug batches to the stock\r\n    function createDrugBatch(\r\n        string memory _drugName,\r\n        string memory _batchDescription\r\n    ) public onlyByOwner {\r\n        require((supplierCtr > 0) && (labCtr > 0) && (wholesalerCtr > 0) && (pharmacyCtr > 0));\r\n        batchCtr++;\r\n        DrugBatches[batchCtr] = DrugBatch(\r\n            batchCtr,\r\n            _drugName,\r\n            _batchDescription,\r\n            0,\r\n            0,\r\n            0,\r\n            0,\r\n            BatchStatus.Pending\r\n        );\r\n    }\r\n}",
  "sourcePath": "C:\\Users\\kpate273\\Desktop\\CSE540 Project\\contracts\\PharmaTrace.sol",
  "compiler": {
    "name": "solc",
    "version": "0.5.16+commit.9c3226ce.Emscripten.clang"
  },
  "schemaVersion": "3.4.16",
  "updatedAt": "2025-12-01T00:39:12.507Z",
  "devdoc": {
    "methods": {}
  },
  "userdoc": {
    "methods": {}
  }
}